{
  "_format": "hh-sol-artifact-1",
  "contractName": "StakingPoolContract",
  "sourceName": "contracts/StakingPoolContract.sol",
  "abi": [
    {
      "inputs": [
        {
          "internalType": "address",
          "name": "tokenAddress",
          "type": "address"
        },
        {
          "internalType": "uint256",
          "name": "_FIXED_APY",
          "type": "uint256"
        },
        {
          "internalType": "uint256",
          "name": "minmum_staking_time_in_days",
          "type": "uint256"
        }
      ],
      "stateMutability": "nonpayable",
      "type": "constructor"
    },
    {
      "anonymous": false,
      "inputs": [
        {
          "indexed": true,
          "internalType": "address",
          "name": "staker",
          "type": "address"
        },
        {
          "indexed": false,
          "internalType": "uint256",
          "name": "amount",
          "type": "uint256"
        }
      ],
      "name": "RewardsWithdrawn",
      "type": "event"
    },
    {
      "anonymous": false,
      "inputs": [
        {
          "indexed": true,
          "internalType": "address",
          "name": "staker",
          "type": "address"
        },
        {
          "indexed": true,
          "internalType": "uint256",
          "name": "id",
          "type": "uint256"
        },
        {
          "indexed": false,
          "internalType": "uint256",
          "name": "amount",
          "type": "uint256"
        },
        {
          "indexed": false,
          "internalType": "uint256",
          "name": "timestamp",
          "type": "uint256"
        }
      ],
      "name": "StakeDeposited",
      "type": "event"
    },
    {
      "anonymous": false,
      "inputs": [
        {
          "indexed": true,
          "internalType": "address",
          "name": "staker",
          "type": "address"
        },
        {
          "indexed": true,
          "internalType": "uint256",
          "name": "id",
          "type": "uint256"
        },
        {
          "indexed": false,
          "internalType": "uint256",
          "name": "amount",
          "type": "uint256"
        },
        {
          "indexed": false,
          "internalType": "uint256",
          "name": "reward",
          "type": "uint256"
        },
        {
          "indexed": false,
          "internalType": "uint256",
          "name": "timestamp",
          "type": "uint256"
        }
      ],
      "name": "StakeWithdrawn",
      "type": "event"
    },
    {
      "inputs": [],
      "name": "MINIMUM_STAKING_TIME",
      "outputs": [
        {
          "internalType": "uint256",
          "name": "",
          "type": "uint256"
        }
      ],
      "stateMutability": "view",
      "type": "function"
    },
    {
      "inputs": [
        {
          "internalType": "address",
          "name": "staker",
          "type": "address"
        },
        {
          "internalType": "uint256",
          "name": "stake_id",
          "type": "uint256"
        }
      ],
      "name": "calculateRewardPerStake",
      "outputs": [
        {
          "internalType": "uint256",
          "name": "",
          "type": "uint256"
        }
      ],
      "stateMutability": "view",
      "type": "function"
    },
    {
      "inputs": [
        {
          "internalType": "address",
          "name": "newOwner",
          "type": "address"
        }
      ],
      "name": "changeOwner",
      "outputs": [],
      "stateMutability": "nonpayable",
      "type": "function"
    },
    {
      "inputs": [
        {
          "internalType": "uint256",
          "name": "amount",
          "type": "uint256"
        }
      ],
      "name": "depositStake",
      "outputs": [
        {
          "internalType": "uint256",
          "name": "",
          "type": "uint256"
        }
      ],
      "stateMutability": "nonpayable",
      "type": "function"
    },
    {
      "inputs": [],
      "name": "getOwner",
      "outputs": [
        {
          "internalType": "address",
          "name": "",
          "type": "address"
        }
      ],
      "stateMutability": "view",
      "type": "function"
    },
    {
      "inputs": [
        {
          "internalType": "address",
          "name": "staker",
          "type": "address"
        }
      ],
      "name": "getRewardsWithdrawable",
      "outputs": [
        {
          "internalType": "uint256",
          "name": "",
          "type": "uint256"
        }
      ],
      "stateMutability": "view",
      "type": "function"
    },
    {
      "inputs": [
        {
          "internalType": "address",
          "name": "staker",
          "type": "address"
        },
        {
          "internalType": "uint256",
          "name": "stake_id",
          "type": "uint256"
        }
      ],
      "name": "getStakeAmount",
      "outputs": [
        {
          "internalType": "uint256",
          "name": "",
          "type": "uint256"
        }
      ],
      "stateMutability": "view",
      "type": "function"
    },
    {
      "inputs": [
        {
          "internalType": "address",
          "name": "staker",
          "type": "address"
        },
        {
          "internalType": "uint256",
          "name": "stake_id",
          "type": "uint256"
        }
      ],
      "name": "getStakeTimestamp",
      "outputs": [
        {
          "internalType": "uint256",
          "name": "",
          "type": "uint256"
        }
      ],
      "stateMutability": "view",
      "type": "function"
    },
    {
      "inputs": [
        {
          "internalType": "address",
          "name": "staker",
          "type": "address"
        }
      ],
      "name": "getTotalStakesCount",
      "outputs": [
        {
          "internalType": "uint256",
          "name": "",
          "type": "uint256"
        }
      ],
      "stateMutability": "view",
      "type": "function"
    },
    {
      "inputs": [],
      "name": "get_FIXED_APY",
      "outputs": [
        {
          "internalType": "uint256",
          "name": "",
          "type": "uint256"
        }
      ],
      "stateMutability": "view",
      "type": "function"
    },
    {
      "inputs": [],
      "name": "instant_withdrawl_allowed",
      "outputs": [
        {
          "internalType": "bool",
          "name": "",
          "type": "bool"
        }
      ],
      "stateMutability": "view",
      "type": "function"
    },
    {
      "inputs": [
        {
          "internalType": "uint256",
          "name": "new_FIXED_APY",
          "type": "uint256"
        }
      ],
      "name": "set_FIXED_APY",
      "outputs": [],
      "stateMutability": "nonpayable",
      "type": "function"
    },
    {
      "inputs": [],
      "name": "toggleWithdrawlInstantOrMonthly",
      "outputs": [],
      "stateMutability": "nonpayable",
      "type": "function"
    },
    {
      "inputs": [
        {
          "internalType": "uint256",
          "name": "_days",
          "type": "uint256"
        }
      ],
      "name": "updateMinimumStakingTime",
      "outputs": [],
      "stateMutability": "nonpayable",
      "type": "function"
    },
    {
      "inputs": [
        {
          "internalType": "uint256",
          "name": "amount",
          "type": "uint256"
        }
      ],
      "name": "withdrawReward",
      "outputs": [],
      "stateMutability": "nonpayable",
      "type": "function"
    },
    {
      "inputs": [
        {
          "internalType": "uint256",
          "name": "amount",
          "type": "uint256"
        },
        {
          "internalType": "uint256",
          "name": "stake_id",
          "type": "uint256"
        }
      ],
      "name": "withdrawStake",
      "outputs": [],
      "stateMutability": "nonpayable",
      "type": "function"
    }
  ],
  "bytecode": "0x60806040526000600360006101000a81548160ff0219169083151502179055503480156200002c57600080fd5b5060405162001eed38038062001eed83398181016040528101906200005291906200014a565b600160008190555082600760006101000a81548173ffffffffffffffffffffffffffffffffffffffff021916908373ffffffffffffffffffffffffffffffffffffffff160217905550603c80601883620000ad9190620001a0565b620000b99190620001a0565b620000c59190620001a0565b6002819055508160018190555033600360016101000a81548173ffffffffffffffffffffffffffffffffffffffff021916908373ffffffffffffffffffffffffffffffffffffffff160217905550505050620002a2565b6000815190506200012d816200026e565b92915050565b600081519050620001448162000288565b92915050565b6000806000606084860312156200016057600080fd5b600062000170868287016200011c565b9350506020620001838682870162000133565b9250506040620001968682870162000133565b9150509250925092565b6000620001ad8262000235565b9150620001ba8362000235565b9250817fffffffffffffffffffffffffffffffffffffffffffffffffffffffffffffffff0483118215151615620001f657620001f56200023f565b5b828202905092915050565b60006200020e8262000215565b9050919050565b600073ffffffffffffffffffffffffffffffffffffffff82169050919050565b6000819050919050565b7f4e487b7100000000000000000000000000000000000000000000000000000000600052601160045260246000fd5b620002798162000201565b81146200028557600080fd5b50565b620002938162000235565b81146200029f57600080fd5b50565b611c3b80620002b26000396000f3fe608060405234801561001057600080fd5b50600436106101005760003560e01c8063893d20e811610097578063c1550d2411610066578063c1550d2414610287578063cb82cc8f146102b7578063d4fe5f03146102e7578063f1fdf4691461031757610100565b8063893d20e8146102135780639fd4787414610231578063a6f9dae11461024d578063a82df1b01461026957610100565b80635a7d3080116100d35780635a7d3080146101795780635d30ba42146101a957806368b58e89146101c757806383ec5183146101e357610100565b806302657ad014610105578063365e2abf14610123578063523a3f081461015357806352ee71fc1461016f575b600080fd5b61010d610333565b60405161011a91906116fb565b60405180910390f35b61013d6004803603810190610138919061128d565b610339565b60405161014a91906116fb565b60405180910390f35b61016d600480360381019061016891906112f2565b610397565b005b610177610640565b005b610193600480360381019061018e9190611264565b6106fc565b6040516101a091906116fb565b60405180910390f35b6101b1610745565b6040516101be91906116fb565b60405180910390f35b6101e160048036038101906101dc91906112f2565b61074f565b005b6101fd60048036038101906101f8919061128d565b61080c565b60405161020a91906116fb565b60405180910390f35b61021b61086a565b6040516102289190611505565b60405180910390f35b61024b600480360381019061024691906112f2565b610894565b005b61026760048036038101906102629190611264565b61089e565b005b610271610972565b60405161027e9190611580565b60405180910390f35b6102a1600480360381019061029c9190611264565b610985565b6040516102ae91906116fb565b60405180910390f35b6102d160048036038101906102cc91906112f2565b6109ce565b6040516102de91906116fb565b60405180910390f35b61030160048036038101906102fc919061128d565b610c4f565b60405161030e91906116fb565b60405180910390f35b610331600480360381019061032c919061131b565b610d4f565b005b60025481565b6000600460008473ffffffffffffffffffffffffffffffffffffffff1673ffffffffffffffffffffffffffffffffffffffff168152602001908152602001600020600083815260200190815260200160002060010154905092915050565b61039f6111cb565b6000600660003373ffffffffffffffffffffffffffffffffffffffff1673ffffffffffffffffffffffffffffffffffffffff1681526020019081526020016000205411610421576040517f08c379a0000000000000000000000000000000000000000000000000000000008152600401610418906115bb565b60405180910390fd5b600660003373ffffffffffffffffffffffffffffffffffffffff1673ffffffffffffffffffffffffffffffffffffffff168152602001908152602001600020548111156104a3576040517f08c379a000000000000000000000000000000000000000000000000000000000815260040161049a9061159b565b60405180910390fd5b80600660003373ffffffffffffffffffffffffffffffffffffffff1673ffffffffffffffffffffffffffffffffffffffff16815260200190815260200160002060008282546104f29190611868565b92505081905550600760009054906101000a900473ffffffffffffffffffffffffffffffffffffffff1673ffffffffffffffffffffffffffffffffffffffff1663a9059cbb33836040518363ffffffff1660e01b8152600401610556929190611557565b602060405180830381600087803b15801561057057600080fd5b505af1158015610584573d6000803e3d6000fd5b505050506040513d601f19601f820116820180604052508101906105a891906112c9565b6105e7576040517f08c379a00000000000000000000000000000000000000000000000000000000081526004016105de906115fb565b60405180910390fd5b3373ffffffffffffffffffffffffffffffffffffffff167f8a43c4352486ec339f487f64af78ca5cbf06cd47833f073d3baf3a193e5031618260405161062d91906116fb565b60405180910390a261063d61121b565b50565b600360019054906101000a900473ffffffffffffffffffffffffffffffffffffffff1673ffffffffffffffffffffffffffffffffffffffff163373ffffffffffffffffffffffffffffffffffffffff16146106d0576040517f08c379a00000000000000000000000000000000000000000000000000000000081526004016106c79061163b565b60405180910390fd5b600360009054906101000a900460ff1615600360006101000a81548160ff021916908315150217905550565b6000600660008373ffffffffffffffffffffffffffffffffffffffff1673ffffffffffffffffffffffffffffffffffffffff168152602001908152602001600020549050919050565b6000600154905090565b600360019054906101000a900473ffffffffffffffffffffffffffffffffffffffff1673ffffffffffffffffffffffffffffffffffffffff163373ffffffffffffffffffffffffffffffffffffffff16146107df576040517f08c379a00000000000000000000000000000000000000000000000000000000081526004016107d69061163b565b60405180910390fd5b603c806018836107ef919061180e565b6107f9919061180e565b610803919061180e565b60028190555050565b6000600460008473ffffffffffffffffffffffffffffffffffffffff1673ffffffffffffffffffffffffffffffffffffffff168152602001908152602001600020600083815260200190815260200160002060020154905092915050565b6000600360019054906101000a900473ffffffffffffffffffffffffffffffffffffffff16905090565b8060018190555050565b600360019054906101000a900473ffffffffffffffffffffffffffffffffffffffff1673ffffffffffffffffffffffffffffffffffffffff163373ffffffffffffffffffffffffffffffffffffffff161461092e576040517f08c379a00000000000000000000000000000000000000000000000000000000081526004016109259061163b565b60405180910390fd5b80600360016101000a81548173ffffffffffffffffffffffffffffffffffffffff021916908373ffffffffffffffffffffffffffffffffffffffff16021790555050565b600360009054906101000a900460ff1681565b6000600560008373ffffffffffffffffffffffffffffffffffffffff1673ffffffffffffffffffffffffffffffffffffffff168152602001908152602001600020549050919050565b60006109d86111cb565b60008211610a1b576040517f08c379a0000000000000000000000000000000000000000000000000000000008152600401610a129061167b565b60405180910390fd5b600760009054906101000a900473ffffffffffffffffffffffffffffffffffffffff1673ffffffffffffffffffffffffffffffffffffffff166323b872dd3330856040518463ffffffff1660e01b8152600401610a7a93929190611520565b602060405180830381600087803b158015610a9457600080fd5b505af1158015610aa8573d6000803e3d6000fd5b505050506040513d601f19601f82011682018060405250810190610acc91906112c9565b610b0b576040517f08c379a0000000000000000000000000000000000000000000000000000000008152600401610b02906115db565b60405180910390fd5b6000600560003373ffffffffffffffffffffffffffffffffffffffff1673ffffffffffffffffffffffffffffffffffffffff16815260200190815260200160002060008154610b59906118e4565b9190508190559050604051806060016040528082815260200184815260200142815250600460003373ffffffffffffffffffffffffffffffffffffffff1673ffffffffffffffffffffffffffffffffffffffff1681526020019081526020016000206000838152602001908152602001600020600082015181600001556020820151816001015560408201518160020155905050803373ffffffffffffffffffffffffffffffffffffffff167feb6032fe8d7a2f7003e5b33948bdc807f994be970351cd021a033784812c8baa8542604051610c36929190611716565b60405180910390a380915050610c4a61121b565b919050565b600080600460008573ffffffffffffffffffffffffffffffffffffffff1673ffffffffffffffffffffffffffffffffffffffff16815260200190815260200160002060008481526020019081526020016000206001015490506000600460008673ffffffffffffffffffffffffffffffffffffffff1673ffffffffffffffffffffffffffffffffffffffff168152602001908152602001600020600085815260200190815260200160002060020154905060008142610d0e9190611868565b90506301e133806064610d21919061180e565b8160015485610d30919061180e565b610d3a919061180e565b610d4491906117dd565b935050505092915050565b610d576111cb565b6000600560003373ffffffffffffffffffffffffffffffffffffffff1673ffffffffffffffffffffffffffffffffffffffff1681526020019081526020016000205411610dd9576040517f08c379a0000000000000000000000000000000000000000000000000000000008152600401610dd09061165b565b60405180910390fd5b600460003373ffffffffffffffffffffffffffffffffffffffff1673ffffffffffffffffffffffffffffffffffffffff168152602001908152602001600020600082815260200190815260200160002060010154821115610e6f576040517f08c379a0000000000000000000000000000000000000000000000000000000008152600401610e669061161b565b60405180910390fd5b600254600460003373ffffffffffffffffffffffffffffffffffffffff1673ffffffffffffffffffffffffffffffffffffffff16815260200190815260200160002060008381526020019081526020016000206002015442610ed19190611868565b101580610eea5750600360009054906101000a900460ff165b610f29576040517f08c379a0000000000000000000000000000000000000000000000000000000008152600401610f20906116bb565b60405180910390fd5b6000610f353383610c4f565b905080600660003373ffffffffffffffffffffffffffffffffffffffff1673ffffffffffffffffffffffffffffffffffffffff1681526020019081526020016000206000828254610f869190611787565b92505081905550600083600460003373ffffffffffffffffffffffffffffffffffffffff1673ffffffffffffffffffffffffffffffffffffffff168152602001908152602001600020600085815260200190815260200160002060010154610fee9190611868565b9050604051806060016040528084815260200182815260200142815250600460003373ffffffffffffffffffffffffffffffffffffffff1673ffffffffffffffffffffffffffffffffffffffff1681526020019081526020016000206000858152602001908152602001600020600082015181600001556020820151816001015560408201518160020155905050600760009054906101000a900473ffffffffffffffffffffffffffffffffffffffff1673ffffffffffffffffffffffffffffffffffffffff1663a9059cbb33866040518363ffffffff1660e01b81526004016110d9929190611557565b602060405180830381600087803b1580156110f357600080fd5b505af1158015611107573d6000803e3d6000fd5b505050506040513d601f19601f8201168201806040525081019061112b91906112c9565b61116a576040517f08c379a00000000000000000000000000000000000000000000000000000000081526004016111619061169b565b60405180910390fd5b823373ffffffffffffffffffffffffffffffffffffffff167f5d89f707c2087d1f0c2ec0ef87eb3bbf3c0eac23c0028df006c7de091258544d8685426040516111b59392919061173f565b60405180910390a350506111c761121b565b5050565b60026000541415611211576040517f08c379a0000000000000000000000000000000000000000000000000000000008152600401611208906116db565b60405180910390fd5b6002600081905550565b6001600081905550565b60008135905061123481611bc0565b92915050565b60008151905061124981611bd7565b92915050565b60008135905061125e81611bee565b92915050565b60006020828403121561127657600080fd5b600061128484828501611225565b91505092915050565b600080604083850312156112a057600080fd5b60006112ae85828601611225565b92505060206112bf8582860161124f565b9150509250929050565b6000602082840312156112db57600080fd5b60006112e98482850161123a565b91505092915050565b60006020828403121561130457600080fd5b60006113128482850161124f565b91505092915050565b6000806040838503121561132e57600080fd5b600061133c8582860161124f565b925050602061134d8582860161124f565b9150509250929050565b6113608161189c565b82525050565b61136f816118ae565b82525050565b6000611382602683611776565b915061138d8261198b565b604082019050919050565b60006113a5601183611776565b91506113b0826119da565b602082019050919050565b60006113c8601583611776565b91506113d382611a03565b602082019050919050565b60006113eb601983611776565b91506113f682611a2c565b602082019050919050565b600061140e602e83611776565b915061141982611a55565b604082019050919050565b6000611431600d83611776565b915061143c82611aa4565b602082019050919050565b6000611454600e83611776565b915061145f82611acd565b602082019050919050565b6000611477601483611776565b915061148282611af6565b602082019050919050565b600061149a601783611776565b91506114a582611b1f565b602082019050919050565b60006114bd602283611776565b91506114c882611b48565b604082019050919050565b60006114e0601f83611776565b91506114eb82611b97565b602082019050919050565b6114ff816118da565b82525050565b600060208201905061151a6000830184611357565b92915050565b60006060820190506115356000830186611357565b6115426020830185611357565b61154f60408301846114f6565b949350505050565b600060408201905061156c6000830185611357565b61157960208301846114f6565b9392505050565b60006020820190506115956000830184611366565b92915050565b600060208201905081810360008301526115b481611375565b9050919050565b600060208201905081810360008301526115d481611398565b9050919050565b600060208201905081810360008301526115f4816113bb565b9050919050565b60006020820190508181036000830152611614816113de565b9050919050565b6000602082019050818103600083015261163481611401565b9050919050565b6000602082019050818103600083015261165481611424565b9050919050565b6000602082019050818103600083015261167481611447565b9050919050565b600060208201905081810360008301526116948161146a565b9050919050565b600060208201905081810360008301526116b48161148d565b9050919050565b600060208201905081810360008301526116d4816114b0565b9050919050565b600060208201905081810360008301526116f4816114d3565b9050919050565b600060208201905061171060008301846114f6565b92915050565b600060408201905061172b60008301856114f6565b61173860208301846114f6565b9392505050565b600060608201905061175460008301866114f6565b61176160208301856114f6565b61176e60408301846114f6565b949350505050565b600082825260208201905092915050565b6000611792826118da565b915061179d836118da565b9250827fffffffffffffffffffffffffffffffffffffffffffffffffffffffffffffffff038211156117d2576117d161192d565b5b828201905092915050565b60006117e8826118da565b91506117f3836118da565b9250826118035761180261195c565b5b828204905092915050565b6000611819826118da565b9150611824836118da565b9250817fffffffffffffffffffffffffffffffffffffffffffffffffffffffffffffffff048311821515161561185d5761185c61192d565b5b828202905092915050565b6000611873826118da565b915061187e836118da565b9250828210156118915761189061192d565b5b828203905092915050565b60006118a7826118ba565b9050919050565b60008115159050919050565b600073ffffffffffffffffffffffffffffffffffffffff82169050919050565b6000819050919050565b60006118ef826118da565b91507fffffffffffffffffffffffffffffffffffffffffffffffffffffffffffffffff8214156119225761192161192d565b5b600182019050919050565b7f4e487b7100000000000000000000000000000000000000000000000000000000600052601160045260246000fd5b7f4e487b7100000000000000000000000000000000000000000000000000000000600052601260045260246000fd5b7f4974206973206d6f7265207468616e2063757272656e7420726577617264206560008201527f61726e65642e0000000000000000000000000000000000000000000000000000602082015250565b7f4e6f2052657761726473204561726e6564000000000000000000000000000000600082015250565b7f5374616b65207472616e73666572206661696c65640000000000000000000000600082015250565b7f52657761726473207769746864726177616c206661696c656400000000000000600082015250565b7f576974686472617720616d6f756e74206973206d6f7265207468616e2062616c60008201527f616e6365206f66207374616b652e000000000000000000000000000000000000602082015250565b7f4e6f7420746865206f776e657200000000000000000000000000000000000000600082015250565b7f4e6f207374616b6520666f756e64000000000000000000000000000000000000600082015250565b7f496e76616c6964207374616b6520616d6f756e74000000000000000000000000600082015250565b7f5374616b65207769746864726177616c206661696c6564000000000000000000600082015250565b7f4d494e494d554d205354414b494e472054494d45206973206e6f74207061737360008201527f6564000000000000000000000000000000000000000000000000000000000000602082015250565b7f5265656e7472616e637947756172643a207265656e7472616e742063616c6c00600082015250565b611bc98161189c565b8114611bd457600080fd5b50565b611be0816118ae565b8114611beb57600080fd5b50565b611bf7816118da565b8114611c0257600080fd5b5056fea26469706673582212205c4a89a4a3191fba8abe7762833e20fb36ecf937d22c1c47a7c39c6659ea124e64736f6c63430008040033",
  "linkReferences": {},
  "deployedLinkReferences": {}
}