{
  "_format": "hh-sol-artifact-1",
  "contractName": "StakingPoolContract",
  "sourceName": "contracts/StakingPoolContract.sol",
  "abi": [
    {
      "inputs": [
        {
          "internalType": "address",
          "name": "tokenAddress",
          "type": "address"
        },
        {
          "internalType": "uint256",
          "name": "_FIXED_APY",
          "type": "uint256"
        },
        {
          "internalType": "uint256",
          "name": "minmum_staking_time_in_days",
          "type": "uint256"
        }
      ],
      "stateMutability": "nonpayable",
      "type": "constructor"
    },
    {
      "anonymous": false,
      "inputs": [
        {
          "indexed": true,
          "internalType": "address",
          "name": "staker",
          "type": "address"
        },
        {
          "indexed": false,
          "internalType": "uint256",
          "name": "amount",
          "type": "uint256"
        }
      ],
      "name": "RewardsWithdrawn",
      "type": "event"
    },
    {
      "anonymous": false,
      "inputs": [
        {
          "indexed": true,
          "internalType": "address",
          "name": "staker",
          "type": "address"
        },
        {
          "indexed": true,
          "internalType": "uint256",
          "name": "id",
          "type": "uint256"
        },
        {
          "indexed": false,
          "internalType": "uint256",
          "name": "amount",
          "type": "uint256"
        },
        {
          "indexed": false,
          "internalType": "uint256",
          "name": "timestamp",
          "type": "uint256"
        }
      ],
      "name": "StakeDeposited",
      "type": "event"
    },
    {
      "anonymous": false,
      "inputs": [
        {
          "indexed": true,
          "internalType": "address",
          "name": "staker",
          "type": "address"
        },
        {
          "indexed": true,
          "internalType": "uint256",
          "name": "id",
          "type": "uint256"
        },
        {
          "indexed": false,
          "internalType": "uint256",
          "name": "amount",
          "type": "uint256"
        },
        {
          "indexed": false,
          "internalType": "uint256",
          "name": "reward",
          "type": "uint256"
        },
        {
          "indexed": false,
          "internalType": "uint256",
          "name": "timestamp",
          "type": "uint256"
        }
      ],
      "name": "StakeWithdrawn",
      "type": "event"
    },
    {
      "inputs": [],
      "name": "MINIMUM_STAKING_TIME",
      "outputs": [
        {
          "internalType": "uint256",
          "name": "",
          "type": "uint256"
        }
      ],
      "stateMutability": "view",
      "type": "function"
    },
    {
      "inputs": [
        {
          "internalType": "address",
          "name": "staker",
          "type": "address"
        },
        {
          "internalType": "uint256",
          "name": "stake_id",
          "type": "uint256"
        }
      ],
      "name": "calculateRewardPerStake",
      "outputs": [
        {
          "internalType": "uint256",
          "name": "",
          "type": "uint256"
        }
      ],
      "stateMutability": "view",
      "type": "function"
    },
    {
      "inputs": [
        {
          "internalType": "address",
          "name": "newOwner",
          "type": "address"
        }
      ],
      "name": "changeOwner",
      "outputs": [],
      "stateMutability": "nonpayable",
      "type": "function"
    },
    {
      "inputs": [
        {
          "internalType": "uint256",
          "name": "amount",
          "type": "uint256"
        }
      ],
      "name": "depositStake",
      "outputs": [
        {
          "internalType": "uint256",
          "name": "",
          "type": "uint256"
        }
      ],
      "stateMutability": "nonpayable",
      "type": "function"
    },
    {
      "inputs": [],
      "name": "getOwner",
      "outputs": [
        {
          "internalType": "address",
          "name": "",
          "type": "address"
        }
      ],
      "stateMutability": "view",
      "type": "function"
    },
    {
      "inputs": [
        {
          "internalType": "address",
          "name": "staker",
          "type": "address"
        }
      ],
      "name": "getRewardsWithdrawable",
      "outputs": [
        {
          "internalType": "uint256",
          "name": "",
          "type": "uint256"
        }
      ],
      "stateMutability": "view",
      "type": "function"
    },
    {
      "inputs": [
        {
          "internalType": "address",
          "name": "staker",
          "type": "address"
        },
        {
          "internalType": "uint256",
          "name": "stake_id",
          "type": "uint256"
        }
      ],
      "name": "getStakeAmount",
      "outputs": [
        {
          "internalType": "uint256",
          "name": "",
          "type": "uint256"
        }
      ],
      "stateMutability": "view",
      "type": "function"
    },
    {
      "inputs": [
        {
          "internalType": "address",
          "name": "staker",
          "type": "address"
        },
        {
          "internalType": "uint256",
          "name": "stake_id",
          "type": "uint256"
        }
      ],
      "name": "getStakeTimestamp",
      "outputs": [
        {
          "internalType": "uint256",
          "name": "",
          "type": "uint256"
        }
      ],
      "stateMutability": "view",
      "type": "function"
    },
    {
      "inputs": [
        {
          "internalType": "address",
          "name": "staker",
          "type": "address"
        }
      ],
      "name": "getTotalStakesCount",
      "outputs": [
        {
          "internalType": "uint256",
          "name": "",
          "type": "uint256"
        }
      ],
      "stateMutability": "view",
      "type": "function"
    },
    {
      "inputs": [],
      "name": "get_FIXED_APY",
      "outputs": [
        {
          "internalType": "uint256",
          "name": "",
          "type": "uint256"
        }
      ],
      "stateMutability": "view",
      "type": "function"
    },
    {
      "inputs": [],
      "name": "instant_withdrawl_allowed",
      "outputs": [
        {
          "internalType": "bool",
          "name": "",
          "type": "bool"
        }
      ],
      "stateMutability": "view",
      "type": "function"
    },
    {
      "inputs": [
        {
          "internalType": "uint256",
          "name": "new_FIXED_APY",
          "type": "uint256"
        }
      ],
      "name": "set_FIXED_APY",
      "outputs": [],
      "stateMutability": "nonpayable",
      "type": "function"
    },
    {
      "inputs": [
        {
          "internalType": "uint256",
          "name": "time",
          "type": "uint256"
        },
        {
          "internalType": "uint256",
          "name": "id",
          "type": "uint256"
        }
      ],
      "name": "set_STAKING_TIME",
      "outputs": [],
      "stateMutability": "nonpayable",
      "type": "function"
    },
    {
      "inputs": [],
      "name": "toggleWithdrawlInstantOrMonthly",
      "outputs": [],
      "stateMutability": "nonpayable",
      "type": "function"
    },
    {
      "inputs": [
        {
          "internalType": "uint256",
          "name": "_days",
          "type": "uint256"
        }
      ],
      "name": "updateMinimumStakingTime",
      "outputs": [],
      "stateMutability": "nonpayable",
      "type": "function"
    },
    {
      "inputs": [
        {
          "internalType": "uint256",
          "name": "amount",
          "type": "uint256"
        }
      ],
      "name": "withdrawReward",
      "outputs": [],
      "stateMutability": "nonpayable",
      "type": "function"
    },
    {
      "inputs": [
        {
          "internalType": "uint256",
          "name": "amount",
          "type": "uint256"
        },
        {
          "internalType": "uint256",
          "name": "stake_id",
          "type": "uint256"
        }
      ],
      "name": "withdrawStake",
      "outputs": [],
      "stateMutability": "nonpayable",
      "type": "function"
    }
  ],
  "bytecode": "0x60806040526000600360006101000a81548160ff0219169083151502179055503480156200002c57600080fd5b5060405162001fa538038062001fa58339818101604052810190620000529190620001c1565b600160008190555082600760006101000a81548173ffffffffffffffffffffffffffffffffffffffff021916908373ffffffffffffffffffffffffffffffffffffffff160217905550603c80601883620000ad91906200024c565b620000b991906200024c565b620000c591906200024c565b6002819055508160018190555033600360016101000a81548173ffffffffffffffffffffffffffffffffffffffff021916908373ffffffffffffffffffffffffffffffffffffffff16021790555050505062000297565b600080fd5b600073ffffffffffffffffffffffffffffffffffffffff82169050919050565b60006200014e8262000121565b9050919050565b620001608162000141565b81146200016c57600080fd5b50565b600081519050620001808162000155565b92915050565b6000819050919050565b6200019b8162000186565b8114620001a757600080fd5b50565b600081519050620001bb8162000190565b92915050565b600080600060608486031215620001dd57620001dc6200011c565b5b6000620001ed868287016200016f565b93505060206200020086828701620001aa565b92505060406200021386828701620001aa565b9150509250925092565b7f4e487b7100000000000000000000000000000000000000000000000000000000600052601160045260246000fd5b6000620002598262000186565b9150620002668362000186565b9250828202620002768162000186565b9150828204841483151762000290576200028f6200021d565b5b5092915050565b611cfe80620002a76000396000f3fe608060405234801561001057600080fd5b506004361061010b5760003560e01c806383ec5183116100a2578063a82df1b011610071578063a82df1b014610290578063c1550d24146102ae578063cb82cc8f146102de578063d4fe5f031461030e578063f1fdf4691461033e5761010b565b806383ec51831461020a578063893d20e81461023a5780639fd4787414610258578063a6f9dae1146102745761010b565b806352ee71fc116100de57806352ee71fc146101965780635a7d3080146101a05780635d30ba42146101d057806368b58e89146101ee5761010b565b806302657ad01461011057806331f837ee1461012e578063365e2abf1461014a578063523a3f081461017a575b600080fd5b61011861035a565b6040516101259190611323565b60405180910390f35b6101486004803603810190610143919061136f565b610360565b005b610164600480360381019061015f919061140d565b6103bc565b6040516101719190611323565b60405180910390f35b610194600480360381019061018f919061144d565b61041a565b005b61019e6106b4565b005b6101ba60048036038101906101b5919061147a565b610770565b6040516101c79190611323565b60405180910390f35b6101d86107b9565b6040516101e59190611323565b60405180910390f35b6102086004803603810190610203919061144d565b6107c3565b005b610224600480360381019061021f919061140d565b610880565b6040516102319190611323565b60405180910390f35b6102426108de565b60405161024f91906114b6565b60405180910390f35b610272600480360381019061026d919061144d565b610908565b005b61028e6004803603810190610289919061147a565b6109a2565b005b610298610a76565b6040516102a591906114ec565b60405180910390f35b6102c860048036038101906102c3919061147a565b610a89565b6040516102d59190611323565b60405180910390f35b6102f860048036038101906102f3919061144d565b610ad2565b6040516103059190611323565b60405180910390f35b6103286004803603810190610323919061140d565b610d44565b6040516103359190611323565b60405180910390f35b6103586004803603810190610353919061136f565b610e44565b005b60025481565b81600460003373ffffffffffffffffffffffffffffffffffffffff1673ffffffffffffffffffffffffffffffffffffffff1681526020019081526020016000206000838152602001908152602001600020600201819055505050565b6000600460008473ffffffffffffffffffffffffffffffffffffffff1673ffffffffffffffffffffffffffffffffffffffff168152602001908152602001600020600083815260200190815260200160002060010154905092915050565b6104226112b1565b6000600660003373ffffffffffffffffffffffffffffffffffffffff1673ffffffffffffffffffffffffffffffffffffffff16815260200190815260200160002054116104a4576040517f08c379a000000000000000000000000000000000000000000000000000000000815260040161049b90611564565b60405180910390fd5b600660003373ffffffffffffffffffffffffffffffffffffffff1673ffffffffffffffffffffffffffffffffffffffff16815260200190815260200160002054811115610526576040517f08c379a000000000000000000000000000000000000000000000000000000000815260040161051d906115f6565b60405180910390fd5b80600660003373ffffffffffffffffffffffffffffffffffffffff1673ffffffffffffffffffffffffffffffffffffffff16815260200190815260200160002060008282546105759190611645565b92505081905550600760009054906101000a900473ffffffffffffffffffffffffffffffffffffffff1673ffffffffffffffffffffffffffffffffffffffff1663a9059cbb33836040518363ffffffff1660e01b81526004016105d9929190611679565b6020604051808303816000875af11580156105f8573d6000803e3d6000fd5b505050506040513d601f19601f8201168201806040525081019061061c91906116ce565b61065b576040517f08c379a000000000000000000000000000000000000000000000000000000000815260040161065290611747565b60405180910390fd5b3373ffffffffffffffffffffffffffffffffffffffff167f8a43c4352486ec339f487f64af78ca5cbf06cd47833f073d3baf3a193e503161826040516106a19190611323565b60405180910390a26106b1611300565b50565b600360019054906101000a900473ffffffffffffffffffffffffffffffffffffffff1673ffffffffffffffffffffffffffffffffffffffff163373ffffffffffffffffffffffffffffffffffffffff1614610744576040517f08c379a000000000000000000000000000000000000000000000000000000000815260040161073b906117b3565b60405180910390fd5b600360009054906101000a900460ff1615600360006101000a81548160ff021916908315150217905550565b6000600660008373ffffffffffffffffffffffffffffffffffffffff1673ffffffffffffffffffffffffffffffffffffffff168152602001908152602001600020549050919050565b6000600154905090565b600360019054906101000a900473ffffffffffffffffffffffffffffffffffffffff1673ffffffffffffffffffffffffffffffffffffffff163373ffffffffffffffffffffffffffffffffffffffff1614610853576040517f08c379a000000000000000000000000000000000000000000000000000000000815260040161084a906117b3565b60405180910390fd5b603c8060188361086391906117d3565b61086d91906117d3565b61087791906117d3565b60028190555050565b6000600460008473ffffffffffffffffffffffffffffffffffffffff1673ffffffffffffffffffffffffffffffffffffffff168152602001908152602001600020600083815260200190815260200160002060020154905092915050565b6000600360019054906101000a900473ffffffffffffffffffffffffffffffffffffffff16905090565b600360019054906101000a900473ffffffffffffffffffffffffffffffffffffffff1673ffffffffffffffffffffffffffffffffffffffff163373ffffffffffffffffffffffffffffffffffffffff1614610998576040517f08c379a000000000000000000000000000000000000000000000000000000000815260040161098f906117b3565b60405180910390fd5b8060018190555050565b600360019054906101000a900473ffffffffffffffffffffffffffffffffffffffff1673ffffffffffffffffffffffffffffffffffffffff163373ffffffffffffffffffffffffffffffffffffffff1614610a32576040517f08c379a0000000000000000000000000000000000000000000000000000000008152600401610a29906117b3565b60405180910390fd5b80600360016101000a81548173ffffffffffffffffffffffffffffffffffffffff021916908373ffffffffffffffffffffffffffffffffffffffff16021790555050565b600360009054906101000a900460ff1681565b6000600560008373ffffffffffffffffffffffffffffffffffffffff1673ffffffffffffffffffffffffffffffffffffffff168152602001908152602001600020549050919050565b6000610adc6112b1565b60008211610b1f576040517f08c379a0000000000000000000000000000000000000000000000000000000008152600401610b1690611861565b60405180910390fd5b600760009054906101000a900473ffffffffffffffffffffffffffffffffffffffff1673ffffffffffffffffffffffffffffffffffffffff166323b872dd3330856040518463ffffffff1660e01b8152600401610b7e93929190611881565b6020604051808303816000875af1158015610b9d573d6000803e3d6000fd5b505050506040513d601f19601f82011682018060405250810190610bc191906116ce565b610c00576040517f08c379a0000000000000000000000000000000000000000000000000000000008152600401610bf790611904565b60405180910390fd5b6000600560003373ffffffffffffffffffffffffffffffffffffffff1673ffffffffffffffffffffffffffffffffffffffff16815260200190815260200160002060008154610c4e90611924565b9190508190559050604051806060016040528082815260200184815260200142815250600460003373ffffffffffffffffffffffffffffffffffffffff1673ffffffffffffffffffffffffffffffffffffffff1681526020019081526020016000206000838152602001908152602001600020600082015181600001556020820151816001015560408201518160020155905050803373ffffffffffffffffffffffffffffffffffffffff167feb6032fe8d7a2f7003e5b33948bdc807f994be970351cd021a033784812c8baa8542604051610d2b92919061196c565b60405180910390a380915050610d3f611300565b919050565b600080600460008573ffffffffffffffffffffffffffffffffffffffff1673ffffffffffffffffffffffffffffffffffffffff16815260200190815260200160002060008481526020019081526020016000206001015490506000600460008673ffffffffffffffffffffffffffffffffffffffff1673ffffffffffffffffffffffffffffffffffffffff168152602001908152602001600020600085815260200190815260200160002060020154905060008142610e039190611645565b90506301e133806064610e1691906117d3565b8160015485610e2591906117d3565b610e2f91906117d3565b610e3991906119c4565b935050505092915050565b610e4c6112b1565b6000600560003373ffffffffffffffffffffffffffffffffffffffff1673ffffffffffffffffffffffffffffffffffffffff1681526020019081526020016000205411610ece576040517f08c379a0000000000000000000000000000000000000000000000000000000008152600401610ec590611a41565b60405180910390fd5b600460003373ffffffffffffffffffffffffffffffffffffffff1673ffffffffffffffffffffffffffffffffffffffff168152602001908152602001600020600082815260200190815260200160002060010154821115610f64576040517f08c379a0000000000000000000000000000000000000000000000000000000008152600401610f5b90611ad3565b60405180910390fd5b600254600460003373ffffffffffffffffffffffffffffffffffffffff1673ffffffffffffffffffffffffffffffffffffffff16815260200190815260200160002060008381526020019081526020016000206002015442610fc69190611645565b101580610fdf5750600360009054906101000a900460ff165b61101e576040517f08c379a000000000000000000000000000000000000000000000000000000000815260040161101590611b65565b60405180910390fd5b600061102a3383610d44565b905080600660003373ffffffffffffffffffffffffffffffffffffffff1673ffffffffffffffffffffffffffffffffffffffff168152602001908152602001600020600082825461107b9190611b85565b92505081905550600083600460003373ffffffffffffffffffffffffffffffffffffffff1673ffffffffffffffffffffffffffffffffffffffff1681526020019081526020016000206000858152602001908152602001600020600101546110e39190611645565b9050604051806060016040528084815260200182815260200142815250600460003373ffffffffffffffffffffffffffffffffffffffff1673ffffffffffffffffffffffffffffffffffffffff1681526020019081526020016000206000858152602001908152602001600020600082015181600001556020820151816001015560408201518160020155905050600760009054906101000a900473ffffffffffffffffffffffffffffffffffffffff1673ffffffffffffffffffffffffffffffffffffffff1663a9059cbb33866040518363ffffffff1660e01b81526004016111ce929190611679565b6020604051808303816000875af11580156111ed573d6000803e3d6000fd5b505050506040513d601f19601f8201168201806040525081019061121191906116ce565b611250576040517f08c379a000000000000000000000000000000000000000000000000000000000815260040161124790611c05565b60405180910390fd5b823373ffffffffffffffffffffffffffffffffffffffff167f5d89f707c2087d1f0c2ec0ef87eb3bbf3c0eac23c0028df006c7de091258544d86854260405161129b93929190611c25565b60405180910390a350506112ad611300565b5050565b6002600054036112f6576040517f08c379a00000000000000000000000000000000000000000000000000000000081526004016112ed90611ca8565b60405180910390fd5b6002600081905550565b6001600081905550565b6000819050919050565b61131d8161130a565b82525050565b60006020820190506113386000830184611314565b92915050565b600080fd5b61134c8161130a565b811461135757600080fd5b50565b60008135905061136981611343565b92915050565b600080604083850312156113865761138561133e565b5b60006113948582860161135a565b92505060206113a58582860161135a565b9150509250929050565b600073ffffffffffffffffffffffffffffffffffffffff82169050919050565b60006113da826113af565b9050919050565b6113ea816113cf565b81146113f557600080fd5b50565b600081359050611407816113e1565b92915050565b600080604083850312156114245761142361133e565b5b6000611432858286016113f8565b92505060206114438582860161135a565b9150509250929050565b6000602082840312156114635761146261133e565b5b60006114718482850161135a565b91505092915050565b6000602082840312156114905761148f61133e565b5b600061149e848285016113f8565b91505092915050565b6114b0816113cf565b82525050565b60006020820190506114cb60008301846114a7565b92915050565b60008115159050919050565b6114e6816114d1565b82525050565b600060208201905061150160008301846114dd565b92915050565b600082825260208201905092915050565b7f4e6f2052657761726473204561726e6564000000000000000000000000000000600082015250565b600061154e601183611507565b915061155982611518565b602082019050919050565b6000602082019050818103600083015261157d81611541565b9050919050565b7f4974206973206d6f7265207468616e2063757272656e7420726577617264206560008201527f61726e65642e0000000000000000000000000000000000000000000000000000602082015250565b60006115e0602683611507565b91506115eb82611584565b604082019050919050565b6000602082019050818103600083015261160f816115d3565b9050919050565b7f4e487b7100000000000000000000000000000000000000000000000000000000600052601160045260246000fd5b60006116508261130a565b915061165b8361130a565b925082820390508181111561167357611672611616565b5b92915050565b600060408201905061168e60008301856114a7565b61169b6020830184611314565b9392505050565b6116ab816114d1565b81146116b657600080fd5b50565b6000815190506116c8816116a2565b92915050565b6000602082840312156116e4576116e361133e565b5b60006116f2848285016116b9565b91505092915050565b7f52657761726473207769746864726177616c206661696c656400000000000000600082015250565b6000611731601983611507565b915061173c826116fb565b602082019050919050565b6000602082019050818103600083015261176081611724565b9050919050565b7f4e6f7420746865206f776e657200000000000000000000000000000000000000600082015250565b600061179d600d83611507565b91506117a882611767565b602082019050919050565b600060208201905081810360008301526117cc81611790565b9050919050565b60006117de8261130a565b91506117e98361130a565b92508282026117f78161130a565b9150828204841483151761180e5761180d611616565b5b5092915050565b7f496e76616c6964207374616b6520616d6f756e74000000000000000000000000600082015250565b600061184b601483611507565b915061185682611815565b602082019050919050565b6000602082019050818103600083015261187a8161183e565b9050919050565b600060608201905061189660008301866114a7565b6118a360208301856114a7565b6118b06040830184611314565b949350505050565b7f5374616b65207472616e73666572206661696c65640000000000000000000000600082015250565b60006118ee601583611507565b91506118f9826118b8565b602082019050919050565b6000602082019050818103600083015261191d816118e1565b9050919050565b600061192f8261130a565b91507fffffffffffffffffffffffffffffffffffffffffffffffffffffffffffffffff820361196157611960611616565b5b600182019050919050565b60006040820190506119816000830185611314565b61198e6020830184611314565b9392505050565b7f4e487b7100000000000000000000000000000000000000000000000000000000600052601260045260246000fd5b60006119cf8261130a565b91506119da8361130a565b9250826119ea576119e9611995565b5b828204905092915050565b7f4e6f207374616b6520666f756e64000000000000000000000000000000000000600082015250565b6000611a2b600e83611507565b9150611a36826119f5565b602082019050919050565b60006020820190508181036000830152611a5a81611a1e565b9050919050565b7f576974686472617720616d6f756e74206973206d6f7265207468616e2062616c60008201527f616e6365206f66207374616b652e000000000000000000000000000000000000602082015250565b6000611abd602e83611507565b9150611ac882611a61565b604082019050919050565b60006020820190508181036000830152611aec81611ab0565b9050919050565b7f4d494e494d554d205354414b494e472054494d45206973206e6f74207061737360008201527f6564000000000000000000000000000000000000000000000000000000000000602082015250565b6000611b4f602283611507565b9150611b5a82611af3565b604082019050919050565b60006020820190508181036000830152611b7e81611b42565b9050919050565b6000611b908261130a565b9150611b9b8361130a565b9250828201905080821115611bb357611bb2611616565b5b92915050565b7f5374616b65207769746864726177616c206661696c6564000000000000000000600082015250565b6000611bef601783611507565b9150611bfa82611bb9565b602082019050919050565b60006020820190508181036000830152611c1e81611be2565b9050919050565b6000606082019050611c3a6000830186611314565b611c476020830185611314565b611c546040830184611314565b949350505050565b7f5265656e7472616e637947756172643a207265656e7472616e742063616c6c00600082015250565b6000611c92601f83611507565b9150611c9d82611c5c565b602082019050919050565b60006020820190508181036000830152611cc181611c85565b905091905056fea2646970667358221220d16c56658041097f00f3913b3517e7bc2bb54bb279b72d29af4c1c1af2f4c7b464736f6c63430008120033",
  "linkReferences": {},
  "deployedLinkReferences": {}
}